{"abi":[{"type":"constructor","inputs":[{"name":"_nonFungiblePositionManager","type":"address","internalType":"address"},{"name":"_pythOracleAddress","type":"address","internalType":"address"},{"name":"_weth","type":"address","internalType":"address"}],"stateMutability":"nonpayable"},{"type":"fallback","stateMutability":"payable"},{"type":"receive","stateMutability":"payable"},{"type":"function","name":"MIN_DEPLOYMENT_FEE","inputs":[],"outputs":[{"name":"","type":"uint256","internalType":"uint256"}],"stateMutability":"view"},{"type":"function","name":"WETH","inputs":[],"outputs":[{"name":"","type":"address","internalType":"address"}],"stateMutability":"view"},{"type":"function","name":"bayviewTokenDeploymentCount","inputs":[],"outputs":[{"name":"","type":"uint256","internalType":"uint256"}],"stateMutability":"view"},{"type":"function","name":"bayviewTokenMap","inputs":[{"name":"bayviewToken","type":"address","internalType":"address"}],"outputs":[{"name":"isBayViewToken","type":"bool","internalType":"bool"}],"stateMutability":"view"},{"type":"function","name":"buy","inputs":[{"name":"token","type":"address","internalType":"contract IBayviewContinuousToken"}],"outputs":[{"name":"amountMinted","type":"uint256","internalType":"uint256"}],"stateMutability":"payable"},{"type":"function","name":"deployBayviewContinuousToken","inputs":[{"name":"name","type":"string","internalType":"string"},{"name":"symbol","type":"string","internalType":"string"}],"outputs":[{"name":"token","type":"address","internalType":"address"}],"stateMutability":"payable"},{"type":"function","name":"emitBuy","inputs":[{"name":"amountMinted","type":"uint256","internalType":"uint256"},{"name":"value","type":"uint256","internalType":"uint256"}],"outputs":[],"stateMutability":"nonpayable"},{"type":"function","name":"emitSell","inputs":[{"name":"amountSold","type":"uint256","internalType":"uint256"},{"name":"salePrice","type":"uint256","internalType":"uint256"}],"outputs":[],"stateMutability":"nonpayable"},{"type":"function","name":"nonFungiblePositionManager","inputs":[],"outputs":[{"name":"","type":"address","internalType":"address"}],"stateMutability":"view"},{"type":"function","name":"pythOracleAddress","inputs":[],"outputs":[{"name":"","type":"address","internalType":"address"}],"stateMutability":"view"},{"type":"function","name":"sell","inputs":[{"name":"token","type":"address","internalType":"contract IBayviewContinuousToken"},{"name":"amount","type":"uint256","internalType":"uint256"}],"outputs":[{"name":"salePrice","type":"uint256","internalType":"uint256"}],"stateMutability":"nonpayable"},{"type":"event","name":"Buy","inputs":[{"name":"bayviewToken","type":"address","indexed":true,"internalType":"address"},{"name":"amountPurchased","type":"uint256","indexed":true,"internalType":"uint256"},{"name":"price","type":"uint256","indexed":true,"internalType":"uint256"}],"anonymous":false},{"type":"event","name":"Deploy","inputs":[{"name":"deployer","type":"address","indexed":true,"internalType":"address"},{"name":"bayviewToken","type":"address","indexed":true,"internalType":"address"}],"anonymous":false},{"type":"event","name":"Sell","inputs":[{"name":"bayviewToken","type":"address","indexed":true,"internalType":"address"},{"name":"amountSold","type":"uint256","indexed":true,"internalType":"uint256"},{"name":"price","type":"uint256","indexed":true,"internalType":"uint256"}],"anonymous":false},{"type":"error","name":"LowDeploymentFee","inputs":[]},{"type":"error","name":"ValueNotSent","inputs":[{"name":"","type":"uint256","internalType":"uint256"}]}],"bytecode":{"object":"0x60e060405234801561001057600080fd5b50604051614e84380380614e8483398101604081905261002f91610067565b6001600160a01b03918216608052811660a0521660c0526100aa565b80516001600160a01b038116811461006257600080fd5b919050565b60008060006060848603121561007c57600080fd5b6100858461004b565b92506100936020850161004b565b91506100a16040850161004b565b90509250925092565b60805160a05160c051614d976100ed6000396000818160d60152610339015260008181610176015261037b015260008181610142015261035a0152614d976000f3fe6080604052600436106100995760003560e01c8063b14cb1ee11610061578063b14cb1ee14610198578063b9040c40146101ab578063cee1fc6c146101cb578063d89d8635146101eb578063e591cb6614610205578063f088d5471461024557005b80630dd4f06e1461009b57806326dd2c2a146100c45780636c197ff51461011057806384bd32b314610130578063ad5c464814610164575b005b3480156100a757600080fd5b506100b160005481565b6040519081526020015b60405180910390f35b3480156100d057600080fd5b506100f87f000000000000000000000000000000000000000000000000000000000000000081565b6040516001600160a01b0390911681526020016100bb565b34801561011c57600080fd5b506100b161012b3660046106ac565b610258565b34801561013c57600080fd5b506100f87f000000000000000000000000000000000000000000000000000000000000000081565b34801561017057600080fd5b506100f87f000000000000000000000000000000000000000000000000000000000000000081565b6100f86101a636600461077d565b61030c565b3480156101b757600080fd5b506100996101c63660046107e6565b610542565b3480156101d757600080fd5b506100996101e63660046107e6565b61058e565b3480156101f757600080fd5b506100b16509184e72a00081565b34801561021157600080fd5b50610235610220366004610808565b60016020526000908152604090205460ff1681565b60405190151581526020016100bb565b6100b1610253366004610808565b6105d9565b604051637bb0746760e01b8152336004820152602481018290526000906001600160a01b03841690637bb07467906044016020604051808303816000875af11580156102a8573d6000803e3d6000fd5b505050506040513d601f19601f820116820180604052508101906102cc919061082c565b90508082846001600160a01b03167fed7a144fad14804d5c249145e3e0e2b63a9eb455b76aee5bc92d711e9bba3e4a60405160405180910390a492915050565b60006509184e72a0003410156103355760405163037e74a960e01b815260040160405180910390fd5b82827f00000000000000000000000000000000000000000000000000000000000000007f00000000000000000000000000000000000000000000000000000000000000007f0000000000000000000000000000000000000000000000000000000000000000336040516103a790610687565b6103b69695949392919061088b565b604051809103906000f0801580156103d2573d6000803e3d6000fd5b50905060006103e26002346108e4565b90506000826001600160a01b03168260405160006040518083038185875af1925050503d8060008114610431576040519150601f19603f3d011682016040523d82523d6000602084013e610436565b606091505b5050604051909150600090339084908381818185875af1925050503d806000811461047d576040519150601f19603f3d011682016040523d82523d6000602084013e610482565b606091505b50509050806104ac57604051630af3fbb760e41b8152600481018490526024015b60405180910390fd5b816104cd57604051630af3fbb760e41b8152600481018490526024016104a3565b6001600160a01b03841660009081526001602081905260408220805460ff19169091179055805481906104ff90610906565b909155506040516001600160a01b0385169033907fb1a29087760d8e8f9b263f598962f752e7bd23badd44897e2966d376d1a59dca90600090a350505092915050565b3360009081526001602052604090205460ff161561058a576040518190839033907fed7a144fad14804d5c249145e3e0e2b63a9eb455b76aee5bc92d711e9bba3e4a90600090a45b5050565b3360009081526001602052604090205460ff161561058a576040518190839033907f1cbc5ab135991bd2b6a4b034a04aa2aa086dac1371cb9b16b8b5e2ed6b036bed90600090a45050565b6040516335313c2160e11b81523360048201526000906001600160a01b03831690636a62784290349060240160206040518083038185885af1158015610623573d6000803e3d6000fd5b50505050506040513d601f19601f82011682018060405250810190610648919061082c565b90503481836001600160a01b03167f1cbc5ab135991bd2b6a4b034a04aa2aa086dac1371cb9b16b8b5e2ed6b036bed60405160405180910390a4919050565b6144348061092e83390190565b6001600160a01b03811681146106a957600080fd5b50565b600080604083850312156106bf57600080fd5b82356106ca81610694565b946020939093013593505050565b634e487b7160e01b600052604160045260246000fd5b600082601f8301126106ff57600080fd5b813567ffffffffffffffff811115610719576107196106d8565b604051601f8201601f19908116603f0116810167ffffffffffffffff81118282101715610748576107486106d8565b60405281815283820160200185101561076057600080fd5b816020850160208301376000918101602001919091529392505050565b6000806040838503121561079057600080fd5b823567ffffffffffffffff8111156107a757600080fd5b6107b3858286016106ee565b925050602083013567ffffffffffffffff8111156107d057600080fd5b6107dc858286016106ee565b9150509250929050565b600080604083850312156107f957600080fd5b50508035926020909101359150565b60006020828403121561081a57600080fd5b813561082581610694565b9392505050565b60006020828403121561083e57600080fd5b5051919050565b6000815180845260005b8181101561086b5760208185018101518683018201520161084f565b506000602082860101526020601f19601f83011685010191505092915050565b60c08152600061089e60c0830189610845565b82810360208401526108b08189610845565b6001600160a01b03978816604085015295871660608401525050918416608083015290921660a09092019190915292915050565b60008261090157634e487b7160e01b600052601260045260246000fd5b500490565b60006001820161092657634e487b7160e01b600052601160045260246000fd5b506001019056fe61010060405234801561001157600080fd5b5060405161443438038061443483398101604081905261003091610318565b6001600160a01b0380851660a052821660805285856083610051838261044b565b50608461005e828261044b565b5050608580546001600160a01b038087166001600160a01b0319928316179092553360c081905260e081905260868054938616939092169290921790556100ae9150670de0b6b3a76400006100da565b5050608880546001600160a01b0319166001600160a01b03939093169290921790915550610530915050565b6001600160a01b0382166101095760405163ec442f0560e01b8152600060048201526024015b60405180910390fd5b61011560008383610119565b5050565b6001600160a01b0383166101445780608260008282546101399190610509565b909155506101b69050565b6001600160a01b038316600090815260806020526040902054818110156101975760405163391434e360e21b81526001600160a01b03851660048201526024810182905260448101839052606401610100565b6001600160a01b03841660009081526080602052604090209082900390555b6001600160a01b0382166101d2576082805482900390556101f1565b6001600160a01b03821660009081526080602052604090208054820190555b816001600160a01b0316836001600160a01b03167fddf252ad1be2c89b69c2b068fc378daa952ba7f163c4a11628f55a4df523b3ef8360405161023691815260200190565b60405180910390a3505050565b634e487b7160e01b600052604160045260246000fd5b600082601f83011261026a57600080fd5b81516001600160401b0381111561028357610283610243565b604051601f8201601f19908116603f011681016001600160401b03811182821017156102b1576102b1610243565b6040528181528382016020018510156102c957600080fd5b60005b828110156102e8576020818601810151838301820152016102cc565b506000918101602001919091529392505050565b80516001600160a01b038116811461031357600080fd5b919050565b60008060008060008060c0878903121561033157600080fd5b86516001600160401b0381111561034757600080fd5b61035389828a01610259565b602089015190975090506001600160401b0381111561037157600080fd5b61037d89828a01610259565b95505061038c604088016102fc565b935061039a606088016102fc565b92506103a8608088016102fc565b91506103b660a088016102fc565b90509295509295509295565b600181811c908216806103d657607f821691505b6020821081036103f657634e487b7160e01b600052602260045260246000fd5b50919050565b601f82111561044657806000526020600020601f840160051c810160208510156104235750805b601f840160051c820191505b81811015610443576000815560010161042f565b50505b505050565b81516001600160401b0381111561046457610464610243565b6104788161047284546103c2565b846103fc565b6020601f8211600181146104ac57600083156104945750848201515b600019600385901b1c1916600184901b178455610443565b600084815260208120601f198516915b828110156104dc57878501518255602094850194600190920191016104bc565b50848210156104fa5786840151600019600387901b60f8161c191681555b50505050600190811b01905550565b8082018082111561052a57634e487b7160e01b600052601160045260246000fd5b92915050565b60805160a05160c05160e051613e8c6105a860003960008181610601015261088301526000818161045e015281816105bf015281816107330152610841015260008181613404015261362f0152600081816134c7015281816137a1015281816137c9015281816137f1015261381d0152613e8c6000f3fe6080604052600436106101425760003560e01c806386c0a26e116100b0578063cb765c1d1161006c578063cb765c1d146103a7578063d78f6123146103ba578063dd62ed3e146103d1578063e1c7392a14610417578063f5d6ac901461042c578063f77c47911461044c57005b806386c0a26e146103075780638da5cb5b1461032757806395d89b4114610347578063a035b1fe1461035c578063a9059cbb14610371578063b5d52ef01461039157005b8063313ce567116100ff578063313ce567146102425780635eb7ad831461025e5780636a6278421461027e57806370a082311461029157806373c51f67146102c75780637bb07467146102e757005b806306fdde0314610144578063095ea7b31461016f578063104b02571461019f57806316f0115b146101cb57806318160ddd1461020357806323b872dd14610222575b005b34801561015057600080fd5b50610159610480565b6040516101669190613884565b60405180910390f35b34801561017b57600080fd5b5061018f61018a3660046138ea565b610512565b6040519015158152602001610166565b3480156101ab57600080fd5b506101b6620aae6081565b60405163ffffffff9091168152602001610166565b3480156101d757600080fd5b506087546101eb906001600160a01b031681565b6040516001600160a01b039091168152602001610166565b34801561020f57600080fd5b506082545b604051908152602001610166565b34801561022e57600080fd5b5061018f61023d366004613916565b61052c565b34801561024e57600080fd5b5060405160128152602001610166565b34801561026a57600080fd5b50610214610279366004613957565b610550565b61021461028c366004613970565b610569565b34801561029d57600080fd5b506102146102ac366004613970565b6001600160a01b031660009081526080602052604090205490565b3480156102d357600080fd5b506102146102e2366004613957565b6106a4565b3480156102f357600080fd5b506102146103023660046138ea565b6106bd565b34801561031357600080fd5b50610214610322366004613957565b610934565b34801561033357600080fd5b506086546101eb906001600160a01b031681565b34801561035357600080fd5b5061015961094d565b34801561036857600080fd5b5061021461095c565b34801561037d57600080fd5b5061018f61038c3660046138ea565b610979565b34801561039d57600080fd5b506101b6613a9881565b3480156103b357600080fd5b5047610214565b3480156103c657600080fd5b506101b662010d8881565b3480156103dd57600080fd5b506102146103ec36600461398d565b6001600160a01b03918216600090815260816020908152604080832093909416825291909152205490565b34801561042357600080fd5b50610142610987565b34801561043857600080fd5b506085546101eb906001600160a01b031681565b34801561045857600080fd5b506101eb7f000000000000000000000000000000000000000000000000000000000000000081565b60606083805461048f906139c6565b80601f01602080910402602001604051908101604052809291908181526020018280546104bb906139c6565b80156105085780601f106104dd57610100808354040283529160200191610508565b820191906000526020600020905b8154815290600101906020018083116104eb57829003601f168201915b5050505050905090565b6000336105208185856113fe565b60019150505b92915050565b60003361053a858285611410565b610545858585611493565b506001949350505050565b600061052661055e60825490565b47620aae60856114f2565b6087546000906001600160a01b0316156105965760405163a71c993f60e01b815260040160405180910390fd5b346105a081610550565b91506105ac8383611637565b6105b4611671565b336001600160a01b037f00000000000000000000000000000000000000000000000000000000000000001614610666576040516333b87f1b60e21b815260048101839052602481018290527f00000000000000000000000000000000000000000000000000000000000000006001600160a01b03169063cee1fc6c90604401600060405180830381600087803b15801561064d57600080fd5b505af1158015610661573d6000803e3d6000fd5b505050505b8082846001600160a01b03167f4c209b5fc8ad50758f13e2e1088ba56a560dff690a1c6fef26394f4c03821c4f60405160405180910390a450919050565b60006105266106b260825490565b47620aae60856116a5565b6087546000906001600160a01b0316156106ea5760405163a71c993f60e01b815260040160405180910390fd5b608754600160a01b900460ff16156107155760405163c83b005960e01b815260040160405180910390fd5b6087805460ff60a01b1916600160a01b179055336001600160a01b037f0000000000000000000000000000000000000000000000000000000000000000161480159061076a5750336001600160a01b03841614155b15610788576040516348f5c3ed60e01b815260040160405180910390fd5b6001600160a01b0383166000908152608060205260409020548211156107c15760405163588569f760e01b815260040160405180910390fd5b6107cb838361182d565b6107d4826106a4565b90506000836001600160a01b03168260405160006040518083038185875af1925050503d8060008114610823576040519150601f19603f3d011682016040523d82523d6000602084013e610828565b606091505b505090506108368183611863565b336001600160a01b037f000000000000000000000000000000000000000000000000000000000000000016146108e8576040516302e4103160e61b815260048101849052602481018390527f00000000000000000000000000000000000000000000000000000000000000006001600160a01b03169063b9040c4090604401600060405180830381600087803b1580156108cf57600080fd5b505af11580156108e3573d6000803e3d6000fd5b505050505b8183856001600160a01b03167f70a5be4112706b3659f25bc36bf449699fc6f33183246bbd54f1001e4190ca7c60405160405180910390a4506087805460ff60a01b1916905592915050565b600061052661094260825490565b47620aae6085611884565b60606084805461048f906139c6565b60006109744761096b60825490565b620aae606119cc565b905090565b600033610520818585611493565b6113fc706bffffffffffffffffffffffffffffffff6000557067ffffffffffffffffffffffffffffffff60015570637fffffffffffffffffffffffffffffff600255705f6fffffffffffffffffffffffffffffff600355705b77ffffffffffffffffffffffffffffff6004557057b3ffffffffffffffffffffffffffffff600555705419ffffffffffffffffffffffffffffff6006557050a2ffffffffffffffffffffffffffffff600755704d517fffffffffffffffffffffffffffff600855704a233fffffffffffffffffffffffffffff6009557047165fffffffffffffffffffffffffffff600a55704429afffffffffffffffffffffffffffff600b5570415bc7ffffffffffffffffffffffffffff600c55703eab73ffffffffffffffffffffffffffff600d55703c1771ffffffffffffffffffffffffffff600e5570399e96ffffffffffffffffffffffffffff600f5570373fc47fffffffffffffffffffffffffff6010557034f9e8ffffffffffffffffffffffffffff6011557032cbfd5fffffffffffffffffffffffffff6012557030b5057fffffffffffffffffffffffffff601355702eb40f9fffffffffffffffffffffffffff601455702cc8340fffffffffffffffffffffffffff601555702af09481ffffffffffffffffffffffffff60165570292c5bddffffffffffffffffffffffffff60175570277abdcdffffffffffffffffffffffffff6018557025daf6657fffffffffffffffffffffffff60195570244c49c65fffffffffffffffffffffffff601a557022ce03cd5fffffffffffffffffffffffff601b5570215f77c047ffffffffffffffffffffffff601c55701fffffffffffffffffffffffffffffffff601d55701eaefdbdabffffffffffffffffffffffff601e55701d6bd8b2ebffffffffffffffffffffffff601f55701c35fedd14ffffffffffffffffffffffff602055701b0ce43b323fffffffffffffffffffffff6021557019f0028ec1ffffffffffffffffffffffff6022557018ded91f0e7fffffffffffffffffffffff6023557017d8ec7f0417ffffffffffffffffffffff6024557016ddc6556cdbffffffffffffffffffffff6025557015ecf52776a1ffffffffffffffffffffff6026557015060c256cb2ffffffffffffffffffffff602755701428a2f98d72ffffffffffffffffffffff6028557013545598e5c23fffffffffffffffffffff602955701288c4161ce1dfffffffffffffffffffff602a557011c592761c666fffffffffffffffffffff602b5570110a688680a757ffffffffffffffffffff602c55701056f1b5bedf77ffffffffffffffffffff602d55700faadceceeff8bffffffffffffffffffff602e55700f05dc6b27edadffffffffffffffffffff602f55700e67a5a25da4107fffffffffffffffffff603055700dcff115b14eedffffffffffffffffffff603155700d3e7a392431239fffffffffffffffffff603255700cb2ff529eb71e4fffffffffffffffffff603355700c2d415c3db974afffffffffffffffffff603455700bad03e7d883f69bffffffffffffffffff603555700b320d03b2c343d5ffffffffffffffffff603655700abc25204e02828dffffffffffffffffff603755700a4b16f74ee4bb207fffffffffffffffff6038557009deaf736ac1f569ffffffffffffffffff603955700976bd9952c7aa957fffffffffffffffff603a557009131271922eaa606fffffffffffffffff603b557008b380f3558668c46fffffffffffffffff603c55700857ddf0117efa215bffffffffffffffff603d557007ffffffffffffffffffffffffffffffff603e557007abbf6f6abb9d087fffffffffffffffff603f5570075af62cbac95f7dfa7fffffffffffffff60405570070d7fb7452e187ac13fffffffffffffff6041557006c3390ecc8af379295fffffffffffffff60425570067c00a3b07ffc01fd6fffffffffffffff604355700637b647c39cbb9d3d27ffffffffffffff6044557005f63b1fc104dbd39587ffffffffffffff6045557005b771955b36e12f7235ffffffffffffff60465570057b3d49dda84556d6f6ffffffffffffff60475570054183095b2c8ececf30ffffffffffffff60485570050a28be635ca2b888f77fffffffffffff6049557004d5156639708c9db33c3fffffffffffff604a557004a23105873875bd52dfdfffffffffffff604b55700471649d87199aa990756fffffffffffff604c557004429a21a029d4c1457cfbffffffffffff604d55700415bc6d6fb7dd71af2cb3ffffffffffff604e557003eab73b3bbfe282243ce1ffffffffffff604f557003c1771ac9fb6b4c18e229ffffffffffff605055700399e96897690418f785257fffffffffff605155700373fc456c53bb779bf0ea9fffffffffff60525570034f9e8e490c48e67e6ab8bfffffffffff60535570032cbfd4a7adc790560b3337ffffffffff60545570030b50570f6e5d2acca94613ffffffffff6055557002eb40f9f620fda6b56c2861ffffffffff6056557002cc8340ecb0d0f520a6af58ffffffffff6057557002af09481380a0a35cf1ba02ffffffffff605855700292c5bdd3b92ec810287b1b3fffffffff605955700277abdcdab07d5a77ac6d6b9fffffffff605a5570025daf6654b1eaa55fd64df5efffffffff605b55700244c49c648baa98192dce88b7ffffffff605c5570022ce03cd5619a311b2471268bffffffff605d55700215f77c045fbe885654a44a0fffffffff605e557001ffffffffffffffffffffffffffffffff605f557001eaefdbdaaee7421fc4d3ede5ffffffff6060557001d6bd8b2eb257df7e8ca57b09bfffffff6061557001c35fedd14b861eb0443f7f133fffffff6062557001b0ce43b322bcde4a56e8ada5afffffff60635570019f0028ec1fff007f5a195a39dfffffff60645570018ded91f0e72ee74f49b15ba527ffffff60655570017d8ec7f04136f4e5615fd41a63ffffff60665570016ddc6556cdb84bdc8d12d22e6fffffff60675570015ecf52776a1155b5bd8395814f7fffff60685570015060c256cb23b3b3cc3754cf40ffffff6069557001428a2f98d728ae223ddab715be3fffff606a5570013545598e5c23276ccf0ede68034fffff606b557001288c4161ce1d6f54b7f61081194fffff606c5570011c592761c666aa641d5a01a40f17ffff606d55700110a688680a7530515f3e6e6cfdcdffff606e557001056f1b5bedf75c6bcb2ce8aed428ffff606f556ffaadceceeff8a0890f3875f008277fff6070556ff05dc6b27edad306388a600f6ba0bfff6071556fe67a5a25da41063de1495d5b18cdbfff6072556fdcff115b14eedde6fc3aa5353f2e4fff6073556fd3e7a3924312399f9aae2e0f868f8fff6074556fcb2ff529eb71e41582cccd5a1ee26fff6075556fc2d415c3db974ab32a51840c0b67edff6076556fbad03e7d883f69ad5b0a186184e06bff6077556fb320d03b2c343d4829abd6075f0cc5ff6078556fabc25204e02828d73c6e80bcdb1a95bf6079556fa4b16f74ee4bb2040a1ec6c15fbbf2df607a556f9deaf736ac1f569deb1b5ae3f36c130f607b556f976bd9952c7aa957f5937d790ef65037607c556f9131271922eaa6064b73a22d0bd4f2bf607d556f8b380f3558668c46c91c49a2f8e967b9607e556f857ddf0117efa215952912839f6473e6607f55565b565b61140b8383836001611a08565b505050565b6001600160a01b03838116600090815260816020908152604080832093861683529290522054600019811461148d578181101561147e57604051637dc7a0d960e11b81526001600160a01b038416600482015260248101829052604481018390526064015b60405180910390fd5b61148d84848484036000611a08565b50505050565b6001600160a01b0383166114bd57604051634b637e8f60e11b815260006004820152602401611475565b6001600160a01b0382166114e75760405163ec442f0560e01b815260006004820152602401611475565b61140b838383611add565b60008085116115135760405162461bcd60e51b8152600401611475906139fa565b600084116115335760405162461bcd60e51b815260040161147590613a26565b60008363ffffffff161180156115525750620f424063ffffffff841611155b61159e5760405162461bcd60e51b815260206004820152601a60248201527f4552525f494e56414c49445f524553455256455f5745494748540000000000006044820152606401611475565b816000036115ae5750600061162f565b620f423f1963ffffffff8416016115db57836115ca8684611c07565b6115d49190613a89565b905061162f565b60006115e78386611c1a565b90506000806115fb838888620f4240611c26565b9092509050600060ff82166116108a85611c07565b61161c911c6001613a9d565b90506116288982613ab0565b9450505050505b949350505050565b6001600160a01b0382166116615760405163ec442f0560e01b815260006004820152602401611475565b61166d60008383611add565b5050565b62010d8861167d611d13565b101561168557565b6087546001600160a01b03166113fc5761169d611ddd565b6113fc611e55565b60008085116116c65760405162461bcd60e51b8152600401611475906139fa565b600084116116e65760405162461bcd60e51b815260040161147590613a26565b60008363ffffffff161180156117055750620f424063ffffffff841611155b6117515760405162461bcd60e51b815260206004820152601a60248201527f4552525f494e56414c49445f524553455256455f5745494748540000000000006044820152606401611475565b848211156117965760405162461bcd60e51b815260206004820152601260248201527111549497d253959053125117d05353d5539560721b6044820152606401611475565b816000036117a65750600061162f565b8482036117b457508261162f565b620f423f1963ffffffff8416016117d057846115ca8584611c07565b60006117dc8387613ab0565b90506000806117f08884620f424089611c26565b909250905060006118018884611c07565b905060ff821688901b836118158284613ab0565b61181f9190613a89565b9a9950505050505050505050565b6001600160a01b03821661185757604051634b637e8f60e11b815260006004820152602401611475565b61166d82600083611add565b8161166d57604051630af3fbb760e41b815260048101829052602401611475565b60008085116118a55760405162461bcd60e51b8152600401611475906139fa565b600084116118c55760405162461bcd60e51b815260040161147590613a26565b60008363ffffffff161180156118e45750620f424063ffffffff841611155b6119305760405162461bcd60e51b815260206004820152601960248201527f4552525f494e56414c49445f524553455256455f524154494f000000000000006044820152606401611475565b816000036119405750600061162f565b620f423f1963ffffffff84160161197d5784600161195e8487611c07565b6119689190613ab0565b6119729190613a89565b6115d4906001613a9d565b60006119898684611c1a565b905060008061199d8389620f424089611c26565b9092509050600060ff821660016119b48a86611c07565b6119be9190613ab0565b901c90506116288882613ab0565b60006119de63ffffffff831684613ac3565b620f42406119f486670de0b6b3a7640000613ac3565b6119fe9190613ac3565b61162f9190613a89565b6001600160a01b038416611a325760405163e602df0560e01b815260006004820152602401611475565b6001600160a01b038316611a5c57604051634a1406b160e11b815260006004820152602401611475565b6001600160a01b038085166000908152608160209081526040808320938716835292905220829055801561148d57826001600160a01b0316846001600160a01b03167f8c5be1e5ebec7d5bd14f71427d1e84f3dd0314c0f7b2291e5b200ac8c7c3b92584604051611acf91815260200190565b60405180910390a350505050565b6001600160a01b038316611b08578060826000828254611afd9190613a9d565b90915550611b7a9050565b6001600160a01b03831660009081526080602052604090205481811015611b5b5760405163391434e360e21b81526001600160a01b03851660048201526024810182905260448101839052606401611475565b6001600160a01b03841660009081526080602052604090209082900390555b6001600160a01b038216611b9657608280548290039055611bb5565b6001600160a01b03821660009081526080602052604090208054820190555b816001600160a01b0316836001600160a01b03167fddf252ad1be2c89b69c2b068fc378daa952ba7f163c4a11628f55a4df523b3ef83604051611bfa91815260200190565b60405180910390a3505050565b6000611c138284613ac3565b9392505050565b6000611c138284613a9d565b600080600160811b8610611c3957600080fd5b60008086611c4b6001607f1b8a613ac3565b611c559190613a89565b905070015bf0a8b1457695355fb8ac404e7a79e3811015611c8057611c7981611ee7565b9150611c8c565b611c8981612460565b91505b60008563ffffffff168763ffffffff1684611ca79190613ac3565b611cb19190613a89565b9050600160831b811015611cd657611cc88161254e565b607f94509450505050611d0a565b6000611ce182612b79565b9050611cfd611cf182607f613af0565b60ff1683901c82612c31565b95509350611d0a92505050565b94509492505050565b6000806000608560009054906101000a90046001600160a01b03166001600160a01b031663b62e3c5a6040518163ffffffff1660e01b81526004016040805180830381865afa158015611d6a573d6000803e3d6000fd5b505050506040513d601f19601f82011682018060405250810190611d8e9190613b09565b91509150600082611d9d613298565b611da79190613ac3565b90506000611db683600a613c14565b611dc890670de0b6b3a7640000613ac3565b9050611dd48183613a89565b94505050505090565b6000611dea606447613a89565b6086546040519192506000916001600160a01b039091169083905b60006040518083038185875af1925050503d8060008114611e42576040519150601f19603f3d011682016040523d82523d6000602084013e611e47565b606091505b5050905061166d8183611863565b6000611e5f6132c8565b90506000611e6c82610550565b90506000611e7a8284613390565b9050611e85816133ba565b608780546001600160a01b0319166001600160a01b0392909216919091179055611eaf8284613473565b6000611ebb8385613536565b9050806001600160801b031660000361148d5760405163027b886560e61b815260040160405180910390fd5b6000808080806fd3094c70f034de4b96ff7d5b6f99fcd88610611f4057611f126001607e1b85613a9d565b93506fd3094c70f034de4b96ff7d5b6f99fcd8611f336001607f1b88613ac3565b611f3d9190613a89565b95505b6fa45af1e1f40c333b3de1db4dd55f29a78610611f9357611f656001607d1b85613a9d565b93506fa45af1e1f40c333b3de1db4dd55f29a7611f866001607f1b88613ac3565b611f909190613a89565b95505b6f910b022db7ae67ce76b441c27035c6a18610611fe657611fb86001607c1b85613a9d565b93506f910b022db7ae67ce76b441c27035c6a1611fd96001607f1b88613ac3565b611fe39190613a89565b95505b6f88415abbe9a76bead8d00cf112e4d4a886106120395761200b6001607b1b85613a9d565b93506f88415abbe9a76bead8d00cf112e4d4a861202c6001607f1b88613ac3565b6120369190613a89565b95505b6f84102b00893f64c705e841d5d4064bd3861061208c5761205e6001607a1b85613a9d565b93506f84102b00893f64c705e841d5d4064bd361207f6001607f1b88613ac3565b6120899190613a89565b95505b6f8204055aaef1c8bd5c3259f4822735a286106120df576120b1600160791b85613a9d565b93506f8204055aaef1c8bd5c3259f4822735a26120d26001607f1b88613ac3565b6120dc9190613a89565b95505b6f810100ab00222d861931c15e39b44e99861061213257612104600160781b85613a9d565b93506f810100ab00222d861931c15e39b44e996121256001607f1b88613ac3565b61212f9190613a89565b95505b6f808040155aabbbe9451521693554f733861061218557612157600160771b85613a9d565b93506f808040155aabbbe9451521693554f7336121786001607f1b88613ac3565b6121829190613a89565b95505b6121936001607f1b87613ab0565b92508291506001607f1b6121a78380613ac3565b6121b19190613a89565b9050600160801b6121c28482613ab0565b6121cc9084613ac3565b6121d69190613a89565b6121e09085613a9d565b93506001607f1b6121f18284613ac3565b6121fb9190613a89565b9150600160811b61221c846faaaaaaaaaaaaaaaaaaaaaaaaaaaaaaaa613ab0565b6122269084613ac3565b6122309190613a89565b61223a9085613a9d565b93506001607f1b61224b8284613ac3565b6122559190613a89565b9150600360801b612276846f99999999999999999999999999999999613ab0565b6122809084613ac3565b61228a9190613a89565b6122949085613a9d565b93506001607f1b6122a58284613ac3565b6122af9190613a89565b9150600160821b6122d0846f92492492492492492492492492492492613ab0565b6122da9084613ac3565b6122e49190613a89565b6122ee9085613a9d565b93506001607f1b6122ff8284613ac3565b6123099190613a89565b9150600560801b61232a846f8e38e38e38e38e38e38e38e38e38e38e613ab0565b6123349084613ac3565b61233e9190613a89565b6123489085613a9d565b93506001607f1b6123598284613ac3565b6123639190613a89565b9150600360811b612384846f8ba2e8ba2e8ba2e8ba2e8ba2e8ba2e8b613ab0565b61238e9084613ac3565b6123989190613a89565b6123a29085613a9d565b93506001607f1b6123b38284613ac3565b6123bd9190613a89565b9150600760801b6123de846f89d89d89d89d89d89d89d89d89d89d89613ab0565b6123e89084613ac3565b6123f29190613a89565b6123fc9085613a9d565b93506001607f1b61240d8284613ac3565b6124179190613a89565b9150600160831b612438846f88888888888888888888888888888888613ab0565b6124429084613ac3565b61244c9190613a89565b6124569085613a9d565b9695505050505050565b600080600160801b83106124a45760006124866124816001607f1b86613a89565b6136b8565b60ff811694851c949091506124a0906001607f1b90613ac3565b9150505b6001607f1b83111561251957607f5b60ff811615612517576001607f1b6124cb8580613ac3565b6124d59190613a89565b9350600160801b841061250757600193841c936124f29082613af0565b60ff166001901b826125049190613a9d565b91505b61251081613c20565b90506124b3565b505b6f05b9de1d10bf4103d647b0955897ba806125446f03f80fe03f80fe03f80fe03f80fe03f883613ac3565b611c139190613a89565b60008080806125616001607c1b86613c3d565b91508190506001607f1b6125758280613ac3565b61257f9190613a89565b9050612593816710e1b3be415a0000613ac3565b61259d9084613a9d565b92506001607f1b6125ae8383613ac3565b6125b89190613a89565b90506125cc816705a0913f6b1e0000613ac3565b6125d69084613a9d565b92506001607f1b6125e78383613ac3565b6125f19190613a89565b905061260581670168244fdac78000613ac3565b61260f9084613a9d565b92506001607f1b6126208383613ac3565b61262a9190613a89565b905061263d81664807432bc18000613ac3565b6126479084613a9d565b92506001607f1b6126588383613ac3565b6126629190613a89565b905061267581660c0135dca04000613ac3565b61267f9084613a9d565b92506001607f1b6126908383613ac3565b61269a9190613a89565b90506126ad816601b707b1cdc000613ac3565b6126b79084613a9d565b92506001607f1b6126c88383613ac3565b6126d29190613a89565b90506126e4816536e0f639b800613ac3565b6126ee9084613a9d565b92506001607f1b6126ff8383613ac3565b6127099190613a89565b905061271b81650618fee9f800613ac3565b6127259084613a9d565b92506001607f1b6127368383613ac3565b6127409190613a89565b905061275181649c197dcc00613ac3565b61275b9084613a9d565b92506001607f1b61276c8383613ac3565b6127769190613a89565b905061278781640e30dce400613ac3565b6127919084613a9d565b92506001607f1b6127a28383613ac3565b6127ac9190613a89565b90506127bd8164012ebd1300613ac3565b6127c79084613a9d565b92506001607f1b6127d88383613ac3565b6127e29190613a89565b90506127f2816317499f00613ac3565b6127fc9084613a9d565b92506001607f1b61280d8383613ac3565b6128179190613a89565b9050612827816301a9d480613ac3565b6128319084613a9d565b92506001607f1b6128428383613ac3565b61284c9190613a89565b905061285b81621c6380613ac3565b6128659084613a9d565b92506001607f1b6128768383613ac3565b6128809190613a89565b905061288f816201c638613ac3565b6128999084613a9d565b92506001607f1b6128aa8383613ac3565b6128b49190613a89565b90506128c281611ab8613ac3565b6128cc9084613a9d565b92506001607f1b6128dd8383613ac3565b6128e79190613a89565b90506128f58161017c613ac3565b6128ff9084613a9d565b92506001607f1b6129108383613ac3565b61291a9190613a89565b9050612927816014613ac3565b6129319084613a9d565b92506001607f1b6129428383613ac3565b61294c9190613a89565b9050612959816001613ac3565b6129639084613a9d565b92506001607f1b8261297d6721c3677c82b4000086613a89565b6129879190613a9d565b6129919190613a9d565b92506001607c1b8516156129d95770018ebef9eac820ae8682b9793ac6d1e7766129cc847001c3d6a24ed82218787d624d3e5eba95f9613ac3565b6129d69190613a89565b92505b6001607d1b851615612a1f577001368b2fc6f9609fe7aceb46aa619baed4612a128470018ebef9eac820ae8682b9793ac6d1e778613ac3565b612a1c9190613a89565b92505b6001607e1b851615612a64576fbc5ab1b16779be3575bd8f0520a9f21f612a57847001368b2fc6f9609fe7aceb46aa619baed5613ac3565b612a619190613a89565b92505b6001607f1b851615612aa8576f454aaa8efe072e7f6ddbab84b40a55c9612a9b846fbc5ab1b16779be3575bd8f0520a9f21e613ac3565b612aa59190613a89565b92505b600160801b851615612aec576f0960aadc109e7a3bf4578099615711ea612adf846f454aaa8efe072e7f6ddbab84b40a55c5613ac3565b612ae99190613a89565b92505b600160811b851615612b2f576e2bf84208204f5977f9a8cf01fdce3d612b22846f0960aadc109e7a3bf4578099615711d7613ac3565b612b2c9190613a89565b92505b600160821b851615612b70576d03c6ab775dd0b95b4cbee7e65d11612b63846e2bf84208204f5977f9a8cf01fdc307613ac3565b612b6d9190613a89565b92505b50909392505050565b60006020607f5b60ff8116612b8f836001613c51565b60ff161015612be25760006002612ba68385613c51565b612bb09190613c6a565b90508460008260ff1660808110612bc957612bc9613ada565b015410612bd857809250612bdc565b8091505b50612b80565b8360008260ff1660808110612bf957612bf9613ada565b015410612c07579392505050565b8360008360ff1660808110612c1e57612c1e613ada565b015410612c2c575092915050565b600080fd5b6000828160ff8416612c438380613ac3565b901c9150612c61826f03442c4e6074a82f1797f72ac0000000613ac3565b612c6b9082613a9d565b905060ff8416612c7b8684613ac3565b901c9150612c99826f0116b96f757c380fb287fd0e40000000613ac3565b612ca39082613a9d565b905060ff8416612cb38684613ac3565b901c9150612cd0826e45ae5bdd5f0e03eca1ff4390000000613ac3565b612cda9082613a9d565b905060ff8416612cea8684613ac3565b901c9150612d07826e0defabf91302cd95b9ffda50000000613ac3565b612d119082613a9d565b905060ff8416612d218684613ac3565b901c9150612d3e826e02529ca9832b22439efff9b8000000613ac3565b612d489082613a9d565b905060ff8416612d588684613ac3565b901c9150612d74826d54f1cf12bd04e516b6da88000000613ac3565b612d7e9082613a9d565b905060ff8416612d8e8684613ac3565b901c9150612daa826d0a9e39e257a09ca2d6db51000000613ac3565b612db49082613a9d565b905060ff8416612dc48684613ac3565b901c9150612de0826d012e066e7b839fa050c309000000613ac3565b612dea9082613a9d565b905060ff8416612dfa8684613ac3565b901c9150612e15826c1e33d7d926c329a1ad1a800000613ac3565b612e1f9082613a9d565b905060ff8416612e2f8684613ac3565b901c9150612e4a826c02bee513bdb4a6b19b5f800000613ac3565b612e549082613a9d565b905060ff8416612e648684613ac3565b901c9150612e7e826b3a9316fa79b88eccf2a00000613ac3565b612e889082613a9d565b905060ff8416612e988684613ac3565b901c9150612eb2826b048177ebe1fa812375200000613ac3565b612ebc9082613a9d565b905060ff8416612ecc8684613ac3565b901c9150612ee5826a5263fe90242dcbacf00000613ac3565b612eef9082613a9d565b905060ff8416612eff8684613ac3565b901c9150612f18826a057e22099c030d94100000613ac3565b612f229082613a9d565b905060ff8416612f328684613ac3565b901c9150612f4a826957e22099c030d9410000613ac3565b612f549082613a9d565b905060ff8416612f648684613ac3565b901c9150612f7c8269052b6b54569976310000613ac3565b612f869082613a9d565b905060ff8416612f968684613ac3565b901c9150612fad82684985f67696bf748000613ac3565b612fb79082613a9d565b905060ff8416612fc78684613ac3565b901c9150612fde826803dea12ea99e498000613ac3565b612fe89082613a9d565b905060ff8416612ff88684613ac3565b901c915061300e826731880f2214b6e000613ac3565b6130189082613a9d565b905060ff84166130288684613ac3565b901c915061303e8267025bcff56eb36000613ac3565b6130489082613a9d565b905060ff84166130588684613ac3565b901c915061306d82661b722e10ab1000613ac3565b6130779082613a9d565b905060ff84166130878684613ac3565b901c915061309c826601317c70077000613ac3565b6130a69082613a9d565b905060ff84166130b68684613ac3565b901c91506130ca82650cba84aafa00613ac3565b6130d49082613a9d565b905060ff84166130e48684613ac3565b901c91506130f7826482573a0a00613ac3565b6131019082613a9d565b905060ff84166131118684613ac3565b901c9150613124826405035ad900613ac3565b61312e9082613a9d565b905060ff841661313e8684613ac3565b901c915061315082632f881b00613ac3565b61315a9082613a9d565b905060ff841661316a8684613ac3565b901c915061317c826301b29340613ac3565b6131869082613a9d565b905060ff84166131968684613ac3565b901c91506131a782620efc40613ac3565b6131b19082613a9d565b905060ff84166131c18684613ac3565b901c91506131d182617fe0613ac3565b6131db9082613a9d565b905060ff84166131eb8684613ac3565b901c91506131fb82610420613ac3565b6132059082613a9d565b905060ff84166132158684613ac3565b901c9150613224826021613ac3565b61322e9082613a9d565b905060ff841661323e8684613ac3565b901c915061324d826001613ac3565b6132579082613a9d565b9050600160ff85161b8561327b6f0688589cc0e9505e2f2fee558000000084613a89565b6132859190613a9d565b61328f9190613a9d565b95945050505050565b6000670de0b6b3a76400006132ac60825490565b6132b461095c565b6132be9190613ac3565b6109749190613a89565b6000806000608560009054906101000a90046001600160a01b03166001600160a01b031663b62e3c5a6040518163ffffffff1660e01b81526004016040805180830381865afa15801561331f573d6000803e3d6000fd5b505050506040513d601f19601f820116820180604052508101906133439190613b09565b9092509050600061335582600a613c14565b61336190613a98613ac3565b9050670de0b6b3a764000060006133788383613ac3565b9050846133858183613a89565b965050505050505090565b60008061339d8484613a89565b905060006133aa82613724565b905061328f81600160601b613ac3565b60008060006133c7613794565b6040516309f56ab160e11b81526001600160a01b0380841660048301528083166024830152610bb8604483015287811660648301529294509092507f0000000000000000000000000000000000000000000000000000000000000000909116906313ead562906084016020604051808303816000875af115801561344f573d6000803e3d6000fd5b505050506040513d601f19601f8201168201806040525081019061162f9190613c8c565b61347d3083611637565b6088546134959030906001600160a01b0316846113fe565b61349e81613819565b60885460405163095ea7b360e01b81526001600160a01b039182166004820152602481018390527f00000000000000000000000000000000000000000000000000000000000000009091169063095ea7b3906044016020604051808303816000875af1158015613512573d6000803e3d6000fd5b505050506040513d601f19601f8201168201806040525081019061140b9190613ca9565b6000806000613543613794565b91509150600080613554878761384e565b915091506000604051806101600160405280866001600160a01b03168152602001856001600160a01b03168152602001610bb862ffffff168152602001603c80620d89e7196135a39190613ccb565b6135ad9190613d05565b60020b8152602001603c806135c5620d89e719613d25565b6135cf9190613ccb565b6135d99190613d05565b60020b815260208101859052604081018490526001606082018190526080820181905260a082015260c00161361061070842613a9d565b9052604051634418b22b60e11b81529091506000906001600160a01b037f00000000000000000000000000000000000000000000000000000000000000001690638831645690613664908590600401613d47565b6080604051808303816000875af1158015613683573d6000803e3d6000fd5b505050506040513d601f19601f820116820180604052508101906136a79190613e0b565b50909b9a5050505050505050505050565b6000806101008310156136eb575b60018311156136e657600192831c926136df9082613c51565b90506136c6565b610526565b60805b60ff81161561371d57600160ff82161b84106137125760ff81169390931c92908117905b60011c607f166136ee565b5092915050565b60006003821115613785575080600061373e600283613a89565b613749906001613a9d565b90505b8181101561377f579050806002816137648186613a89565b61376e9190613a9d565b6137789190613a89565b905061374c565b50919050565b811561378f575060015b919050565b6000806001600160a01b037f00000000000000000000000000000000000000000000000000000000000000001630106137ee577f000000000000000000000000000000000000000000000000000000000000000030613811565b307f00000000000000000000000000000000000000000000000000000000000000005b915091509091565b60007f00000000000000000000000000000000000000000000000000000000000000006001600160a01b031682604051611e05565b600080600061385b613794565b5090506001600160a01b0381163014613875578385613878565b84845b92509250509250929050565b602081526000825180602084015260005b818110156138b25760208186018101516040868401015201613895565b506000604082850101526040601f19601f83011684010191505092915050565b6001600160a01b03811681146138e757600080fd5b50565b600080604083850312156138fd57600080fd5b8235613908816138d2565b946020939093013593505050565b60008060006060848603121561392b57600080fd5b8335613936816138d2565b92506020840135613946816138d2565b929592945050506040919091013590565b60006020828403121561396957600080fd5b5035919050565b60006020828403121561398257600080fd5b8135611c13816138d2565b600080604083850312156139a057600080fd5b82356139ab816138d2565b915060208301356139bb816138d2565b809150509250929050565b600181811c908216806139da57607f821691505b60208210810361377f57634e487b7160e01b600052602260045260246000fd5b6020808252601290820152714552525f494e56414c49445f535550504c5960701b604082015260600190565b6020808252601b908201527f4552525f494e56414c49445f524553455256455f42414c414e43450000000000604082015260600190565b634e487b7160e01b600052601260045260246000fd5b634e487b7160e01b600052601160045260246000fd5b600082613a9857613a98613a5d565b500490565b8082018082111561052657610526613a73565b8181038181111561052657610526613a73565b808202811582820484141761052657610526613a73565b634e487b7160e01b600052603260045260246000fd5b60ff828116828216039081111561052657610526613a73565b60008060408385031215613b1c57600080fd5b505080516020909101519092909150565b6001815b6001841115613b6857808504811115613b4c57613b4c613a73565b6001841615613b5a57908102905b60019390931c928002613b31565b935093915050565b600082613b7f57506001610526565b81613b8c57506000610526565b8160018114613ba25760028114613bac57613bc8565b6001915050610526565b60ff841115613bbd57613bbd613a73565b50506001821b610526565b5060208310610133831016604e8410600b8410161715613beb575081810a610526565b613bf86000198484613b2d565b8060001904821115613c0c57613c0c613a73565b029392505050565b6000611c138383613b70565b600060ff821680613c3357613c33613a73565b6000190192915050565b600082613c4c57613c4c613a5d565b500690565b60ff818116838216019081111561052657610526613a73565b600060ff831680613c7d57613c7d613a5d565b8060ff84160491505092915050565b600060208284031215613c9e57600080fd5b8151611c13816138d2565b600060208284031215613cbb57600080fd5b81518015158114611c1357600080fd5b60008160020b8360020b80613ce257613ce2613a5d565b627fffff19821460001982141615613cfc57613cfc613a73565b90059392505050565b60008260020b8260020b028060020b915080821461371d5761371d613a73565b60008160020b627fffff198103613d3e57613d3e613a73565b60000392915050565b81516001600160a01b0316815261016081016020830151613d7360208401826001600160a01b03169052565b506040830151613d8a604084018262ffffff169052565b506060830151613d9f606084018260020b9052565b506080830151613db4608084018260020b9052565b5060a083015160a083015260c083015160c083015260e083015160e0830152610100830151610100830152610120830151613dfb6101208401826001600160a01b03169052565b5061014092830151919092015290565b60008060008060808587031215613e2157600080fd5b845160208601519094506001600160801b0381168114613e4057600080fd5b604086015160609096015194979096509250505056fea2646970667358221220da41b1ea3ff62347ab54b77dfb41f58f6e9c57f3331c3651e0bae2510b61349f64736f6c634300081b0033a26469706673582212204c3244081052a35adcd92799426acf9d583aa7dc77be38f6892c0a6e5ceb0b7d64736f6c634300081b0033","linkReferences":{}},"methodIdentifiers":{"MIN_DEPLOYMENT_FEE()":"d89d8635","WETH()":"ad5c4648","bayviewTokenDeploymentCount()":"0dd4f06e","bayviewTokenMap(address)":"e591cb66","buy(address)":"f088d547","deployBayviewContinuousToken(string,string)":"b14cb1ee","emitBuy(uint256,uint256)":"cee1fc6c","emitSell(uint256,uint256)":"b9040c40","nonFungiblePositionManager()":"26dd2c2a","pythOracleAddress()":"84bd32b3","sell(address,uint256)":"6c197ff5"},"id":1}