{"abi":[{"type":"constructor","inputs":[{"name":"_pyth","type":"address","internalType":"contract IPyth"}],"stateMutability":"nonpayable"},{"type":"function","name":"getETHPriceInUSD","inputs":[],"outputs":[{"name":"price","type":"uint256","internalType":"uint256"},{"name":"exponent","type":"uint256","internalType":"uint256"}],"stateMutability":"view"},{"type":"function","name":"oracleAddress","inputs":[],"outputs":[{"name":"","type":"address","internalType":"address"}],"stateMutability":"view"},{"type":"error","name":"PriceBelowZero","inputs":[{"name":"","type":"int64","internalType":"int64"}]}],"bytecode":{"object":"0x60a06040526000805461ffff1916612a30179055348015601e57600080fd5b5060405161037f38038061037f833981016040819052603b91604b565b6001600160a01b03166080526079565b600060208284031215605c57600080fd5b81516001600160a01b0381168114607257600080fd5b9392505050565b6080516102e6610099600039600081816048015260dc01526102e66000f3fe608060405234801561001057600080fd5b50600436106100365760003560e01c8063a89ae4ba1461003b578063b62e3c5a14610077575b600080fd5b6040516001600160a01b037f00000000000000000000000000000000000000000000000000000000000000001681526020015b60405180910390f35b61007f610094565b6040805192835260208301919091520161006e565b6000805460405163052571af60e51b81527fff61491a931112ddf1bd8147cd1b641375f79f5825126d665480874634fd0ace600482015261ffff9091166024820152819081907f00000000000000000000000000000000000000000000000000000000000000006001600160a01b03169063a4ae35e090604401608060405180830381865afa15801561012b573d6000803e3d6000fd5b505050506040513d601f19601f8201168201806040525081019061014f91906101e8565b905061015a81610180565b806000015160070b92508060400151600019610176919061027b565b60030b9150509091565b6000816000015160070b12156101b6578051604051630630aa3760e01b815260079190910b600482015260240160405180910390fd5b50565b805167ffffffffffffffff811681146101d157600080fd5b919050565b8051600381900b81146101d157600080fd5b600060808284031280156101fb57600080fd5b600090506040516080810181811067ffffffffffffffff8211171561022e57634e487b7160e01b83526041600452602483fd5b6040528351600781900b8114610242578283fd5b8152610250602085016101b9565b6020820152610261604085016101d6565b604082015260609384015193810193909352509092915050565b60008260030b8260030b028060030b91508082146102a957634e487b7160e01b600052601160045260246000fd5b509291505056fea2646970667358221220585969c695a6ed413b1f6fc611c7aa822314fe240c9080c7ee329e0c77df632464736f6c634300081b0033","linkReferences":{}},"methodIdentifiers":{"getETHPriceInUSD()":"b62e3c5a","oracleAddress()":"a89ae4ba"},"id":14}